:100000000C9462000C948A000C948A000C948A0070
:100010000C948A000C948A000C948A000C948A0038
:100020000C948A000C948A000C948A000C948A0028
:100030000C948A000C948A000C948A000C948A0018
:100040000C9410030C948A000C9480030C945A03B3
:100050000C948A000C948A000C948A000C948A00F8
:100060000C948A000C948A000000000023002600F3
:10007000290000000000240027002A0000000000E2
:10008000250028002B0004040404040404040202D4
:100090000202020203030303030301020408102007
:1000A0004080010204081020010204081020000012
:1000B0000008000201000003040700000000000027
:1000C0000000770511241FBECFEFD8E0DEBFCDBF03
:1000D00012E0A0E0B1E0EEEFFDE002C005900D926D
:1000E000AE33B107D9F722E0AEE3B2E001C01D9212
:1000F000A43EB207E1F710E0C2E6D0E004C02197C9
:10010000FE010E94F706C136D107C9F70E94F70326
:100110000C94FD060C94000090E0FC01E255FF4FAA
:100120002491FC01E656FF4F3491FC01EA57FF4F42
:10013000E491EE23C9F0222339F0233001F1A8F431
:10014000213019F1223029F1F0E0EE0FFF1FE458C1
:10015000FF4FA591B4918FB7F894EC91611126C02F
:1001600030953E233C938FBF08952730A9F0283067
:10017000C9F0243049F7809180008F7D03C08091C1
:1001800080008F7780938000DFCF84B58F7784BD28
:10019000DBCF84B58F7DFBCF8091B0008F778093CC
:1001A000B000D2CF8091B0008F7DF9CF3E2BDACF57
:1001B000CF93DF9390E0FC01E656FF4F24918A57DE
:1001C0009F4FFC0184918823D1F090E0880F991F04
:1001D000FC01EE58FF4FA591B491FC01E458FF4F8C
:1001E000C591D49161110EC09FB7F8948C91E22F04
:1001F000E0958E238C932881E223E8839FBFDF91D3
:10020000CF9108958FB7F894EC91E22BEC938FBFC8
:10021000F6CF8E3008F08E508770806480937C001B
:1002200080917A00806480937A0080917A0086FDC4
:10023000FCCF809178009091790008953FB7F894B1
:100240008091430290914402A0914502B0914602F0
:1002500026B5A89B05C02F3F19F00196A11DB11D21
:100260003FBFBA2FA92F982F8827BC01CD01620F5D
:10027000711D811D911D42E0660F771F881F991F18
:100280004A95D1F70895AF92BF92CF92DF92EF9245
:10029000FF920F931F93CF93DF936C017B018B0130
:1002A000040F151FEB015E01AE18BF08C017D10780
:1002B00059F06991D601ED91FC910190F081E02D0A
:1002C000C6010995892B79F7C501DF91CF911F915F
:1002D0000F91FF90EF90DF90CF90BF90AF90089577
:1002E000FC01538D448D252F30E0842F90E0821B3C
:1002F000930B541710F0CF96089501970895FC01C1
:10030000918D828D981761F0A28DAE0FBF2FB11D18
:100310005D968C91928D9F5F9F73928F90E0089570
:100320008FEF9FEF0895FC01918D828D981731F02A
:10033000828DE80FF11D858D90E008958FEF9FEF7E
:100340000895FC01918D228D892F90E0805C9F4F54
:10035000821B91098F739927089587E492E00E9488
:10036000A10121E0892B09F420E0822F089580E08B
:1003700090E0892B29F00E94AD0181110C940000BE
:100380000895FC01A48DA80FB92FB11DA35ABF4F2A
:100390002C91848D90E001968F739927848FA68984
:1003A000B7892C93A089B1898C91837080648C93D8
:1003B000938D848D981306C00288F389E02D808187
:1003C0008F7D80830895EF92FF920F931F93CF93B9
:1003D000DF93EC0181E0888F9B8D8C8D98131AC080
:1003E000E889F989808185FF15C09FB7F894EE8967
:1003F000FF896083E889F9898081837080648083C4
:100400009FBF81E090E0DF91CF911F910F91FF900E
:10041000EF900895F62E0B8D10E00F5F1F4F0F73B6
:100420001127E02E8C8D8E110CC00FB607FCFACF71
:10043000E889F989808185FFF5CFCE010E94C1014D
:10044000F1CFEB8DEC0FFD2FF11DE35AFF4FF08242
:100450009FB7F8940B8FEA89FB8980818062CFCFA8
:10046000CF93DF93EC01888D8823B9F0AA89BB89EB
:10047000E889F9898C9185FD03C0808186FD0DC0D6
:100480000FB607FCF7CF8C9185FFF2CF808185FFF7
:10049000EDCFCE010E94C101E9CFDF91CF91089548
:1004A00060E08AE00E948C0060E08BE00C948C009D
:1004B00060E08AE00E948C0061E08BE00C948C008C
:1004C00061E08AE00E948C0060E08BE00C948C007C
:1004D00060E088E00E948C0060E089E00C948C0071
:1004E00060E088E00E948C0061E089E00C948C0060
:1004F000FC0101900020E9F73197AF01481B590B2F
:10050000BC0187E492E00C944301CF93DF930E94F7
:100510007802EC0182E191E00E9478028C0F9D1F2D
:10052000DF91CF9108958F929F92AF92BF92CF9219
:10053000DF92EF92FF920F931F93CF93DF93CDB78C
:10054000DEB7A1970FB6F894DEBF0FBECDBF6C012A
:10055000990FEE08FF08F7FE41C06DE287E492E0D4
:100560000E94E3018C0122273327A9012C193D09A0
:100570004E095F0919A2CE0181967C019AE0892E6D
:10058000912CA12CB12CCA01B901A50194010E94A2
:10059000D506605DF70162937F01211531054105A4
:1005A000510589F790E080E0309719F0CF010E9463
:1005B0007802800F911FA1960FB6F894DEBF0FBE90
:1005C000CDBFDF91CF911F910F91FF90EF90DF9002
:1005D000CF90BF90AF909F908F900895A701960104
:1005E00019A28E010F5D1F4F8AE0C82ED12CE12C7D
:1005F000F12CCA01B901A70196010E94D506605DE0
:10060000F80162938F01211531054105510589F7E4
:1006100090E080E0309779F2CF010E947802CBCF52
:100620001F920F920FB60F9211242F933F938F9327
:100630009F93AF93BF9380913F0290914002A0910E
:100640004102B091420230913E0223E0230F2D3748
:1006500058F50196A11DB11D20933E0280933F02E3
:1006600090934002A0934102B093420280914302D2
:1006700090914402A0914502B09146020196A11DBD
:10068000B11D8093430290934402A0934502B0931E
:100690004602BF91AF919F918F913F912F910F9003
:1006A0000FBE0F901F90189526E8230F0296A11DEC
:1006B000B11DD2CF1F920F920FB60F9211242F931C
:1006C0003F934F935F936F937F938F939F93AF93DA
:1006D000BF93EF93FF9387E492E00E94C101FF91E3
:1006E000EF91BF91AF919F918F917F916F915F91AA
:1006F0004F913F912F910F900FBE0F901F90189523
:100700001F920F920FB60F9211242F938F939F93E6
:10071000EF93FF93E0915702F09158028081E091AE
:100720005D02F0915E0282FD1BC0908180916002AB
:100730008F5F8F7320916102821741F0E091600218
:10074000F0E0E95BFD4F958F80936002FF91EF91A0
:100750009F918F912F910F900FBE0F901F90189522
:100760008081F4CFCF92DF92EF92FF920F931F938D
:10077000E82FF92F05C0015011092109310961F154
:10078000908196239417B9F305C0015011092109EE
:10079000310911F1908196239413F7CFC12CD12CFC
:1007A000E12CF12C0AC08FEFC81AD80AE80AF80A1F
:1007B0000C151D052E053F0579F0808186238417D1
:1007C00091F36C2D7D2D8E2D9F2D1F910F91FF90FC
:1007D000EF90DF90CF90089560E070E080E090E0CF
:1007E0001F910F91FF90EF90DF90CF900895789434
:1007F00084B5826084BD84B5816084BD85B5826026
:1008000085BD85B5816085BD80916E0081608093D6
:100810006E0010928100809181008260809381003F
:10082000809181008160809381008091800081604F
:10083000809380008091B10084608093B1008091AA
:10084000B00081608093B00080917A0084608093D2
:100850007A0080917A00826080937A0080917A0099
:10086000816080937A0080917A00806880937A001A
:100870001092C100E0915702F091580282E080830B
:10088000E0915302F09154021082E0915502F091F0
:1008900056028FEC808310925F02E0915B02F09130
:1008A0005C0286E08083E0915902F0915A028081D7
:1008B00080618083E0915902F0915A0280818860C2
:1008C0008083E0915902F0915A0280818068808390
:1008D000E0915902F0915A0280818F7D808361E01E
:1008E00088E00E94D80061E089E00E94D80061E0C1
:1008F0008AE00E94D80061E08BE00E94D80061E0AD
:1009000086E00E94D80060E087E00E94D8000E9444
:1009100068020E94500285E191E00E94850223E076
:10092000622E712C33E2A32EB12C40E0842E40E0E5
:10093000942E8EE00E9409016C018FE00E94090153
:100940007C0160E086E00E948C00C3010197F1F712
:1009500061E086E00E948C00C5010197F1F760E03C
:1009600086E00E948C00E1EAF0E06491EDE8F0E0BE
:100970008491E82FF0E0EE0FFF1FE859FF4F8591BB
:10098000949108EA11E620E030E0462F0E94B2037D
:10099000611571058105910509F479C06F5F7F4F7D
:1009A0008F4F9F4F9F70611571058105910509F467
:1009B0006EC00E94DC0528E23EE74CE05DE30E9449
:1009C000400620E030E040E05FE30E9440060E94E5
:1009D000A405EB0185E491E00E947802C6010E9423
:1009E00093028FE491E00E947802C7010E94930273
:1009F0008DE591E00E947802CE010E9493028BE681
:100A000091E00E948502F5EFCF16F1E0DF060CF0D1
:100A100041C025EFE21621E0F2060CF449C08FE652
:100A200091E00E9485020E9470020E9450020E9482
:100A30001E011B012C0182E3C82ED12CE12CF12CCC
:100A40000E941E016219730984099509683E73406A
:100A500081059105A8F3E1E0CE1AD108E108F1087B
:100A6000F8EE2F0EF3E03F1E411C511CC114D104BF
:100A7000E104F10429F78114910409F45ACF0E948A
:100A8000AD01882309F455CF0E94000052CFC7EE74
:100A9000D3E0A0CF85EFE81681E0F80684F48AE978
:100AA00091E00E9485020E9468020E945802BFCF16
:100AB00085EC91E00E9485020E947002F6CF6A9751
:100AC0007CF483EE91E00E94850261E088E00E9460
:100AD0008C0060E089E00E948C000E946002A7CF39
:100AE00085E192E00E9485020E946802F6CFE7E469
:100AF000F2E01382128288EE93E0A0E0B0E08483FB
:100B00009583A683B78384E091E09183808385EC0D
:100B100090E09587848784EC90E09787868780ECC7
:100B200090E0918B808B81EC90E0938B828B82ECB8
:100B300090E0958B848B86EC90E0978B868B118E62
:100B4000128E138E148E08950E94AB056894B11115
:100B50000C943A0608950E941F0688F09F5798F05B
:100B6000B92F9927B751B0F0E1F0660F771F881FB2
:100B7000991F1AF0BA95C9F714C0B13091F00E94CC
:100B80003906B1E008950C943906672F782F88272D
:100B9000B85F39F0B93FCCF3869577956795B395F3
:100BA000D9F73EF490958095709561957F4F8F4F62
:100BB0009F4F0895E89409C097FB3EF49095809567
:100BC000709561957F4F8F4F9F4F9923A9F0F92F13
:100BD00096E9BB279395F695879577956795B79591
:100BE000F111F8CFFAF4BB0F11F460FF1BC06F5F77
:100BF0007F4F8F4F9F4F16C0882311F096E911C089
:100C0000772321F09EE8872F762F05C0662371F0A9
:100C100096E8862F70E060E02AF09A95660F771FBD
:100C2000881FDAF7880F9695879597F9089557FDED
:100C30009058440F551F59F05F3F71F04795880F4A
:100C400097FB991F61F09F3F79F0879508951216E1
:100C500013061406551FF2CF4695F1DF08C016168D
:100C600017061806991FF1CF86957105610508943E
:100C70000895E894BB2766277727CB0197F9089555
:100C80000E9453060C94C4060E94B60638F00E94D7
:100C9000BD0620F0952311F00C94AD060C94B3061C
:100CA00011240C943A060E94170670F3959FC1F325
:100CB000950F50E0551F629FF001729FBB27F00D0A
:100CC000B11D639FAA27F00DB11DAA1F649F66275F
:100CD000B00DA11D661F829F2227B00DA11D621FAE
:100CE000739FB00DA11D621F839FA00D611D221F68
:100CF000749F3327A00D611D231F849F600D211D4C
:100D0000822F762F6A2F11249F5750409AF0F1F0CE
:100D100088234AF0EE0FFF1FBB1F661F771F881F37
:100D200091505040A9F79E3F510580F00C94AD06BC
:100D30000C943A065F3FE4F3983ED4F3869577959A
:100D40006795B795F795E7959F5FC1F7FE2B880FDD
:100D5000911D9695879597F9089597F99F6780E873
:100D600070E060E008959FEF80EC089500240A94FD
:100D70001616170618060906089500240A94121676
:100D80001306140605060895092E0394000C11F4A9
:100D9000882352F0BB0F40F4BF2B11F460FF04C056
:100DA0006F5F7F4F8F4F9F4F0895A1E21A2EAA1BAE
:100DB000BB1BFD010DC0AA1FBB1FEE1FFF1FA2170B
:100DC000B307E407F50720F0A21BB30BE40BF50B08
:100DD000661F771F881F991F1A9469F76095709591
:100DE000809590959B01AC01BD01CF010895EE0F58
:0E0DF000FF1F0590F491E02D0994F894FFCFB9
:100DFE0000000000E301430170013002A1017F01F8
:100E0E0093010D0A003D3D3D2053554D4F424F5429
:100E1E00204C494E452053454E534F52202B2055C2
:100E2E004C545241534F4E49432041545441434B2D
:100E3E00203D3D3D004C4546542049523A2000206D
:100E4E007C2052494748542049523A2000207C20A9
:100E5E0044495354414E43453A200020636D005798
:100E6E0048495445202B20424C41434B202D3E20D7
:100E7E004C4546542052455645525345202F20523C
:100E8E00494748542053544F5000424C41434B2045
:100E9E002B205748495445202D3E204C4546542082
:100EAE0053544F50202F20524947485420524556F4
:100EBE0045525345005748495445202B2057484921
:100ECE005445202D3E20424F5448205245564552FF
:100EDE005345004F50504F4E454E542044455445B7
:100EEE0043544544202D3E20424F5448204D4F54EC
:100EFE004F525320464F5257415244202F204154B7
:100F0E005441434B004E4F204F50504F4E454E5480
:100F1E00202D3E20524947485420464F52574152A9
:0E0F2E0044202F204C4546542053544F500071
:00000001FF
